:10000000008000205D060000450600004506000057
:1000100000000000000000000000000000000000E0
:100020000000000000000000000000004506000085
:10003000000000000000000045060000B1060000BE
:100040004506000045060000450600004506000084
:100050004506000045060000450600004906000070
:100060004506000091050000450600004506000019
:100070004506000045060000A105000045060000F9
:100080004506000045060000450600004506000044
:10009000000000004506000045060000450600007F
:1000A0004506000045060000450600004506000024
:1000B0000000000010B5064C2378002B07D1054B3B
:1000C000002B02D0044800E000BF0123237010BDC4
:1000D0008000002000000000241E0000044B10B52A
:1000E000002B03D00349044800E000BF10BDC04608
:1000F0000000000084000020241E0000F8B50E4D12
:100100000E4E2B680E4CF15C0D290FD100270D49C6
:100110002000F75401F083F93100200001F090F93C
:100120000949200001F07BF92F60F8BD0133200060
:100130002B6001F078F9F8E7AC000020B000002057
:100140001C0400208C1700009C170000F8B50D005F
:10015000070000210720160000F0AEFC114C03211F
:10016000200000F0D4F8290CC9B2200000F0CFF82C
:10017000290AC9B2200000F0CAF8E9B2200000F054
:10018000C6F83D00EB1B9E4206DD0021200000F07A
:10019000BEF828700135F5E70121072000F08CFC3E
:1001A0003000F8BDB001002070B50121072000F03B
:1001B00037FC0121072000F07FFC2C4800F076F985
:1001C00096212B4C8901200000F0CAFE294920000D
:1001D00001F036F92849200001F032F927492000C2
:1001E00001F02EF92649200001F02AF925492000C6
:1001F00001F026F9200001F01BF92349200001F04D
:100200001FF9224E102200213000FFF79FFF2049E6
:10021000200001F004F90025715D1022200001F09A
:1002200049F901351B49200001F0F9F8102DF3D1EF
:100230001949200001F004F91849200001F0EFF8F5
:100240000025715D200001F0EEF801351449200011
:1002500001F0E5F8102DF4D11249200001F0F0F87A
:100260001149200001F0DBF870BDC046B00100204C
:100270001C040020AE170000E51700001D18000048
:10028000551800008D180000C51800009C000020C3
:10029000E9180000FA180000FE180000F11800002C
:1002A000F9180000FC1800009C17000010B5084C5D
:1002B000200000F05DFE002808DD200001F06CF851
:1002C000044B054A1B68D054FFF718FF10BDC04609
:1002D0001C040020AC000020B000002070B5060017
:1002E0000C008D18AC4207D0336821789B68300031
:1002F000984720700134F5E770BD7047704710B51E
:100300000400406800F048FD0023237610BD10B5BE
:10031000406800F066FD10BDF8B5050040680C00AF
:1003200000F05AFD2B68E7B2260A9B68012810D11D
:1003300039002800FF2798472B68BC4304439B687B
:10034000310028009847030220003840184380B24B
:10035000F8BD310028009847FF262B680002344082
:1003600004439B68390028009847B4432043EEE7D4
:1003700010B5040001F0BAF8200010BD10B54B1CF8
:100380000BD0102909D0EFF3108472B6102905DDC7
:1003900002234376002C00D162B610BD0123427EB9
:1003A0001A43427618224A430449891816228A566B
:1003B0009340C2691343C361ECE7C0464019000093
:1003C0004B1C17D0102915D0437E9B0712D4EFF396
:1003D000108272B618234B430749C9180123897D3F
:1003E00049B28B40C1699943C16100D14176002A6D
:1003F00000D162B67047C04640190000437E002B12
:1004000005D09A0704D5837E002B00D062B67047D2
:10041000DB07FCD5C369024A9BB2D360F7E7C0464D
:1004200000180040037E002B04D143768376C3611D
:1004300001330376704700007FB5036902AE040004
:100440000D00029172608B4203D1828AB3889A4276
:1004500026D0200006223100103001F025F9606816
:1004600000F0B1FC7379E17A013B581E8341227B95
:1004700000936068002300F04BFD33790021013BBD
:10048000DBB2022B01D8074AD15C074B2A009D4200
:1004900000D91A00606800F067FC606800F089FC11
:1004A0007FBDC046FF180000001BB70070B51826BE
:1004B0000400FFF7B7FF33000821207A0D4D4343B6
:1004C000EB18595600F024FB33000821A07A43436F
:1004D000EB18595600F01CFB0821607A4643AD1911
:1004E000695600F015FB044B200006CBFFF7A4FF74
:1004F00070BDC04640190000D001002007B5437E02
:1005000000910192002B07D09A070AD5EFF31083D0
:100510005A425341837672B60099019AFFF78CFFD5
:1005200007BDDB07F8D5C369014A9BB29360F3E7C7
:10053000001800400E490F4B10B501220B6000233C
:100540004A710B710C490D48083101600C49427524
:1005500041600C49C27201811821036181720375E7
:10056000094A0A490376037300F0C4FF10BDC04670
:10057000D001002000093D0004190000B001002056
:10058000800600201617000000000020FD02000079
:1005900010B5024800F05FFE10BDC0461C040020EC
:1005A00010B5024800F057FE10BDC046D80100202B
:1005B000F7B501240326154F1549380000F044FB18
:1005C0001449154800F040FB1449154800F03CFB65
:1005D0001449154800F038FB1449154800F034FB65
:1005E000144D1549280000F02FFB39000096230018
:1005F00001940022114800F0A7FD00962900019403
:100600001E231F220E4800F09FFDF7BD600600204C
:1006100000080042000C0042680600200010004262
:1006200070060020001400427806002000180042E6
:100630008006002088060020001C00421C040020C8
:10064000D8010020FEE70000034B10B51B68002B0B
:1006500000D0984710BDC0469006002070B50F49E5
:100660000F4CA14204D100F081F800F029FFFEE711
:100670000C4D00238D42F6D0CA18E818A24205D3CB
:10068000094B8242EFD00949002204E0006804339C
:100690001060F1E704C38B42FCD3E4E700000020C4
:1006A00080000020281E0000800000209C06002002
:1006B00010B500F058F8002801D100F049F810BD3D
:1006C000F7B51348012284461249134C8E686368BB
:1006D00005689B0E1340019288686268019F920E24
:1006E0003A4067463F6893420ED1BD420CD18642E4
:1006F0000AD35B19FA254868AD00861B07486B438F
:100700007043000DC018FEBD3D0013000600E3E776
:100710009406002010E000E000ED00E055550000D8
:1007200070B5041E10D0FFF7CBFF050000F01AF8DB
:10073000FFF7C6FF054B401B9842F7D9FA23013C4F
:100740009B00ED18002CF3D170BDC046E7030000FC
:1007500010B5034A13680133136000F039FA10BD75
:100760009406002070470020704700001E2270B5DC
:1007700046484749436893431C3A13434360082360
:100780008C6923438B61434C434B9C829C8A14436A
:100790009C82DC681442FCD00124404A1470157815
:1007A000254203D055786DB2002DF8DB012494600A
:1007B000547864B2002CFBDB394C5460547864B23A
:1007C000002CFBDB8224E4015480547864B2002CBA
:1007D000FBDB02249C840E34DD682542FCD0314CC6
:1007E000DC621024DD682542FCD09D8C2E4C2C430D
:1007F0009C841024DD682542FCD002249D8C802638
:100800002C439C844024DD683542FCD0DD682542C1
:10081000F9D01024DD682542FCD00024946054787F
:1008200064B2002CFBDB214C5460547864B2002C81
:10083000FBDB1C6A1E4D2C4080251C621C6AAC43ED
:100840001C62032393601B4B536053785BB2002BF5
:10085000FBDB0023FF240B72174A4B728B72CB72A7
:10086000164B1A60164B174A1B6811689A065B01F3
:10087000C90E2340520F12020B431343124A138531
:10088000802342681343436070BDC046004000416E
:10089000000400400C06000000080040000C00406E
:1008A00001050100B905FF7D040A000000070300EF
:1008B000FFFCFFFF03060100006CDC0204000020C7
:1008C000246080002060800000400042FA21314B0B
:1008D00010B51868890000F01FFE2F4B01389842B0
:1008E00056D82E492E4A4860C020136A00061B02C3
:1008F0001B0A03431362002407238C600B608021D2
:10090000136A09061B021B0A0B431362FC22254BC8
:10091000196A0A431A62FC22196A92010A431A628E
:10092000A022196AD2020A431A62E0B200210134FD
:1009300000F076F8142CF8D11B4B1C005A7852B2F8
:10094000002AFBDB194A5A80194B1A00597EC90943
:100950000129FBD0E421C90099803F21D970537E41
:10096000DB09012BFBD0C02300205B0113619070D9
:1009700000F024F863785BB2002BFBDB0D4B0E4AD2
:100980006380D379DB09012BFBD04123537010BD69
:10099000FEE7C04604000020FFFFFF0010E000E07B
:1009A00000ED00E000040040000C00401E4000008C
:1009B000004000422140000000480042164A00B5B5
:1009C0001300517EC9090129FBD00138042816D82B
:1009D0001969124A0A400F211A615A788A4300F0B5
:1009E00091FD0308060B0300110001220A435A700F
:1009F00000BD11000322F9E711000222F6E7F023FF
:100A000011691B050B430F21136153788B431900A8
:100A100002230B435370EBE700400042FFFFFFF05F
:100A2000182330B51D00040045430820204A5519FD
:100A30002856013014D0032912D808006343D15638
:100A4000D31800F05FFD02280E1B5868CB0102216D
:100A5000184A9B181A1840321170012282405A60BD
:100A600030BD5868CB010621124A9B181A18403233
:100A70001170012282405A609A61F1E75868CB01F7
:100A800006210C4A9B181A1840321170012282402C
:100A90005A605A61E4E75868CB010221054A9B1865
:100AA0001A1840321170012282409A60D8E7C0467D
:100AB00040190000004400411823F0B508245843B1
:100AC000114A13181C5701341BD0012635005F68EA
:100AD0008356BD400D4ADB019A18906805420BD140
:100AE0000C00601E8441D219403210783440033625
:100AF000A400B04320431070044A9B18002901D180
:100B00005D61F0BD9D61FCE74019000000440041BB
:100B100018224243F8B52C4E0300B218127A52B292
:100B2000140001320ED0481C00240C280AD800F012
:100B3000E9FC0720202020202020200B0B0B0B009D
:100B4000012464422000F8BD092905D10021D8B252
:100B5000FFF766FF0024F5E70A2902D1D8B2083969
:100B6000F6E700240B29EDD1D8B20A39FFF758FF78
:100B7000E8E718204343F2185568F3562C00134A4F
:100B8000DB016E0817389B18C9B204409E19002C6F
:100B90000DD00F2430363278090122401143C9B2FA
:100BA0005B19317040331A7810431870D2E7320065
:100BB0000F27303216785B19BE4331431170403332
:100BC0001A7810431870BDE7401900000044004136
:100BD000164A10B51368591C26D0013B1360002B30
:100BE00022D172B6124B134A0433934213D9124ADC
:100BF00001211000147D0C42FCD02021148BFF3108
:100C00009B085B0021431183D3610C4B13800123AC
:100C1000027D1A42FCD0BFF34F8F094B094ADA60BC
:100C2000BFF34F8FC046FDE710BDC046080000204F
:100C300000000000030200000040004102A5FFFF89
:100C400000ED00E00400FA05002303710160704725
:100C50009446F0B59E1E721E964162460568920744
:100C60002F6836063A4332432A60072505AC2478BC
:100C70000068A4012940214342680024022B00D0CF
:100C80005C03114321434160F0BD30B5C0250368CA
:100C9000AD031C6812052A402243C0240904A402A3
:100CA00021401143196003685A6814435C6030BDE9
:100CB0000123026811680B43136003681A68D207A6
:100CC000FCD4DA69D207F9D47047022302681168AC
:100CD0000B4313600268D3699B07FCD4704702681A
:100CE000137E9B0702D40379002BF9D100230371F3
:100CF0007047002203685A8370470368187E4007D4
:100D0000C00F70470368187EC009704780230268CF
:100D10005B42117E0B43137670470368588B800744
:100D2000C00F704702230268518B0B4353837047F7
:100D30000368187EC007C00F70470368188DC0B2E3
:100D4000704703681A7ED207FCD589B21985012342
:100D5000037118007047012203689A7570470122D9
:100D600003681A757047000070B5012604684B08C7
:100D700033403140256809075B070B432B43236051
:100D800004685100034800F0C7FB0138C0B220736B
:100D900070BDC046006CDC020123026811680B4381
:100DA000136003681A68D207FCD4DA69D207F9D451
:100DB00070470223026811680B4313600268D3690D
:100DC0009B07FCD470470368DA699207FCD40221C0
:100DD0001A688A431A607047036818684000C00F99
:100DE00070470268936A5B0A5B0219439162036869
:100DF0001A7E5207FCD5986AC0B270470368214A30
:100E000030B593422FD0204A93422FD01F4A9342AD
:100E10002FD01F4A93422FD01E4A93422FD01E4AF2
:100E200093421FD10E2319220121032599401B480B
:100E3000C024016099082B40AB40FC359D408900DF
:100E40000918A4000859A843C0259D402B0003435E
:100E50000B518023DB011A43114B5A805A7852B24E
:100E6000002AFBDB30BD09231422DDE70A2315220B
:100E7000DAE70B231622D7E70C231722D4E70D233A
:100E80001822D1E700080042000C00420010004286
:100E90000014004200180042001C004200E100E083
:100EA000000C0040F8B504000F0016001D00FFF70D
:100EB000A5FF2000FFF7FCFE1C21BB000B407107C3
:100EC0002268090C0B431360842322689375012F59
:100ED0001AD11021012E00D008390C4B6943186833
:100EE000C00000F019FB0722216802408B895203E1
:100EF000DB04DB0C13438B81226803049089DB0C39
:100F0000400B400318439081F8BDC0460400002008
:100F1000F7B50600019308AB1F780D001400FFF72A
:100F20003BFF3000FFF76AFFC02224059203144004
:100F3000BA070C2717433C43C0270722BF022D04E2
:100F400033683D4025431D60019B316813401A0002
:100F500080239B0213434B60F7BD012070470000C4
:100F600010B50368014A1B6A984710BD13040000BE
:100F7000FC30006A704787239B00C018C36880203C
:100F80004000C01A70470300FC331A6A002A03D0DD
:100F9000DB69C018007D704701204042FBE710B5B7
:100FA00004000069FFF784FE22000023FC329361F5
:100FB000D361136287229200A4186360A360E36088
:100FC00010BD872310B59B00C218D368002BFCD13D
:100FD0000069FFF784FE10BD0368002B02D162B6E2
:100FE000BFF36F8F7047F0200140303948424841CD
:100FF0007047F0231B011940802306209B00994273
:101000000AD00133FF330130994205D080230238E2
:101010005B00994200D0002070470F200140002063
:10102000012903D00239481E8141481C7047000045
:101030008B23F0B5182685B002919B000400C05C9C
:10104000330008214343324D1700EB185956FFF780
:101050005FFD304B0821E05C33004343EB185956E9
:10106000FFF756FD2C4BE25C0393022A09D11133A2
:10107000E05CFF2805D008214643AE197156FFF702
:1010800047FD8C26B600A05DFF2819D00121FFF78F
:10109000C7FC1822A35D21495A43AB56AD18DB01AA
:1010A00058188D21890060501D4901225B188E213E
:1010B0008900635069688A408F21890062501A60F4
:1010C0000122029B11002069FFF7ECFE390020008D
:1010D000FFF78FFF390005002000FFF79EFF390062
:1010E00006002000FFF77FFF3300009029002069F1
:1010F0000122FFF7ADFD0B4B2069E25C039BE15C35
:10110000FFF7C3FD2069FFF7E0FD05B0F0BDC04665
:10111000401900002D0200002F0200001844004179
:10112000144400412E020000802210B50400520039
:10113000002100F0C2FA23000022FC335A60200094
:101140009A60DA6010BD0000F7B51D0008AB1B788F
:101150000400009309AB1B78160001930023436041
:10116000FA239B008360114B0F0008330360143097
:10117000FFF7DAFF20002130FF30FFF7D5FF8B2388
:101180006A469B002761E654094B1278E554094BE7
:101190002000E2546A46084B1279E2548C22313B1B
:1011A000FF3B9200A3541032A354FEBD901D0000DB
:1011B0002D0200002E0200002F020000F7B5EFF311
:1011C000108300930123019372B680260200FF254D
:1011D000019BFC327600013B5C1C0FD0D4685F1E83
:1011E000B44209D054680155546801342C4054600D
:1011F000D4680134D460EEE73B00EDE76846019324
:10120000FFF7EAFEF7BD13B5EFF310830093012358
:10121000019372B6019B5A1E0192002B15D0030058
:10122000FC33DA68002A0DD09A68845C9A6801322F
:10123000D2B29A60DA68013ADA606846FFF7CCFE0B
:10124000200016BD01246442F7E701246846FFF739
:10125000C3FE6442F4E710B504000069FFF75DFDCA
:10126000002805D02069FFF768FD2069FFF75AFDC7
:101270002069FFF742FD00281BD02069FFF75DFDC4
:10128000010020001430FFF799FF8C239B00E35CE2
:10129000FF2B0ED02300FC331A6A80235B009B1ABD
:1012A000092B06DC8D238F229B009200E358A25865
:1012B0001A602069FFF73CFD00280ED087239B00B1
:1012C000E318DB68002B14D020002130FF30FFF73B
:1012D0009AFFC1B22069FFF734FD2069FFF712FDC4
:1012E000002805D02069FFF711FD2069FFF701FDF7
:1012F00010BD2069FFF733FDEFE70000F8B50400EB
:1013000000690D00FFF714FD87239B00E6180028F5
:1013100002D0F368002B34D001278022F3685200FA
:10132000934223D1EFF310833B4210D1174B5B68FC
:10133000DB05DB0DF1D0103B5BB2002B10DAF13A8C
:101340001340083B9B08124A9B009B181B682069AE
:10135000FFF7EEFC0028E0D02000FFF77CFFDCE781
:101360009B08C0330B4A9B009B58F0E720002130BC
:10137000FF302900FFF722FF2069FFF7ECFC012076
:10138000F8BD29002069FFF7DCFCF8E700ED00E07C
:101390001CED00E000E100E010B504001430FFF7A0
:1013A00032FF8C239B00E35CFF2B0ED02300FC3329
:1013B0001A6A80235B009B1A0A2B06DD8E238F227C
:1013C0009B009200E358A2581A6010BDF7B50600C2
:1013D0000D000C008B180193019B671B9C4207D0EA
:1013E000336821781B683000984701340028F3D116
:1013F0003800FEBD70B5040008000D0000F0B0F923
:101400002368020029005B682000984770BD10B572
:101410000B1E02D0FFF7EEFF0300180010BD10B541
:10142000FFF7F5FF10BD10B503681B68984710BDA6
:1014300010B50249FFF7DEFF10BDC046FC180000E2
:1014400070B50400FFF7E3FF05002000FFF7F0FF91
:10145000401970BDF0B58BB06B4615000022053306
:101460000600DA770800012D00D80A2509AC29000A
:1014700000F0D8F8CAB2130037330700DBB20929ED
:1014800002D813003033DBB2013C2370002FEED1C1
:1014900021003000FFF7BBFF0BB0F0BD10B5002AF4
:1014A00004D10368C9B21B68984710BDD2B2FFF7D8
:1014B000D1FFFAE710B5FFF7F1FF10BD704700004C
:1014C00010B5FFF703FA00F0C1F8FFF7F7FF0120AE
:1014D000FFF726F9FEF768FEFEF7E8FE024B002B49
:1014E000FAD000E000BFF7E70000000010B500F000
:1014F000D1F810BD0B0010B50100180000F098F8ED
:1015000010BD000002B4714649084900095C490059
:101510008E4402BC7047C046002243088B4274D3FD
:1015200003098B425FD3030A8B4244D3030B8B42E4
:1015300028D3030C8B420DD3FF22090212BA030CED
:101540008B4202D31212090265D0030B8B4219D3CE
:1015500000E0090AC30B8B4201D3CB03C01A5241EE
:10156000830B8B4201D38B03C01A5241430B8B4236
:1015700001D34B03C01A5241030B8B4201D30B031F
:10158000C01A5241C30A8B4201D3CB02C01A524146
:10159000830A8B4201D38B02C01A5241430A8B4209
:1015A00001D34B02C01A5241030A8B4201D30B02F2
:1015B000C01A5241CDD2C3098B4201D3CB01C01A0C
:1015C000524183098B4201D38B01C01A5241430916
:1015D0008B4201D34B01C01A524103098B4201D304
:1015E0000B01C01A5241C3088B4201D3CB00C01A71
:1015F000524183088B4201D38B00C01A52414308E9
:101600008B4201D34B00C01A5241411A00D201460D
:10161000524110467047FFE701B5002000F006F880
:1016200002BDC0460029F7D076E770477047C04634
:1016300010B5040004481300002804D00A0002205A
:10164000210000E000BF10BD0000000070B50026C2
:101650000C4D0D4C641BA410A64209D1002600F0CD
:1016600089F80A4D0A4C641BA410A64205D170BD2E
:10167000B300EB5898470136EEE7B300EB589847B4
:101680000136F2E77000002070000020700000209A
:101690007C00002010B5034B0100186800F016F81C
:1016A00010BDC0460C000020002310B59A4200D1A6
:1016B00010BDCC5CC4540133F8E703001218934208
:1016C00000D1704719700133F9E7000070B50500CB
:1016D000002910D00C1F2368002B00DAE418280022
:1016E00000F045F81D4A1368002B05D163601460B3
:1016F000280000F03DF870BDA34209D921686018A8
:101700008342F3D118685B6841182160EEE713004B
:101710005A68002A01D0A242F9D919685818A04283
:101720000BD120680918581819608242E0D110685E
:101730005268411819605A60DAE7A04202D90C23B6
:101740002B60D5E721686018824203D11068526887
:101750004118216062605C60CAE7C04698060020BC
:101760000023C25C0133002AFBD1581E704770472A
:1017700070470000F8B5C046F8BC08BC9E467047EC
:10178000F8B5C046F8BC08BC9E4670470D0A3E201E
:10179000596F752077726F74653A2000456E7465D5
:1017A0007220736F6D6520746578743E2000202070
:1017B0005F5F5F20205F202020202020205F2020EE
:1017C0002020205F205F205F205F5F5F5F20202060
:1017D0002020202020202020202020202020202009
:1017E0002020205F00202F205F205C7C207C5F5F1A
:1017F0002020207C207C202020285F2920282029D0
:10180000205F5F202920205F5F5F2020205F5F2016
:101810005F205F205F5F205F5F7C207C007C207CFE
:10182000207C207C20275F205C20207C207C2020C6
:10183000207C207C207C2F7C20205F205C202F209F
:101840005F205C202F205F60207C20275F5F2F209F
:101850005F60207C007C207C5F7C207C207C5F297A
:10186000207C207C207C5F5F5F7C207C207C207C37
:10187000207C5F29207C20285F29207C20285F7C19
:10188000207C207C207C20285F7C207C00205C5FEA
:101890005F5C5F5C5F2E5F5F2F20207C5F5F5F5F20
:1018A0005F7C5F7C5F7C207C5F5F5F5F2F205C5F85
:1018B0005F5F2F205C5F5F2C5F7C5F7C20205C5F24
:1018C0005F2C5F7C004C6F6164696E67203136204D
:1018D00062797465732066726F6D2053504920469B
:1018E0006C617368202E2E2E004845583E3E3E20E7
:1018F000004348523E3E3E20002020000D0A0001D9
:10190000020300000000000000000000FD020000D3
:10191000710300000F03000019030000DD02000046
:101920007D030000C1030000FD040000FD03000072
:10193000FB020000FB020000AD040000FF020000FB
:10194000000000000B000000020000000400000086
:10195000FF00FFFFFFFF0B00000000000A00000077
:101960000200000004000000FF00FFFFFFFF0A006C
:10197000000000000E00000008000000040000004D
:10198000FF00FFFFFFFF0E00000000000900000045
:10199000040000001C000000FF000100010009001D
:1019A0000000000008000000040000001C0000000F
:1019B000FF00000000001000000000000F00000009
:1019C000040000001C000000FF00010301030F00E1
:1019D0000000000014000000050000002C000000C2
:1019E000FF000200020004000000000015000000DB
:1019F000050000002C000000FF00030003000500AC
:101A00000000000006000000040000001C000000B0
:101A1000FF000001000106000000000007000000B8
:101A2000040000001C000000FF000101010107008C
:101A30000000000012000000040000001C00000074
:101A4000FF0000030003020000000000100000007F
:101A5000040000001C000000FF0000020002000063
:101A60000000000013000000050000002C00000032
:101A7000FF0003000300030000000000110000004D
:101A8000040000001C000000FF0001020102010030
:101A90000000000002000000010000000200000041
:101AA0000000FFFFFFFF020001000000080000002F
:101AB00001000000180000000200000400040800FB
:101AC00001000000090000000100000018000000F3
:101AD00003000104010409000000000004000000EC
:101AE00001000000000000000400FFFFFFFF0400F1
:101AF00000000000050000000100000000000000E0
:101B00000500FFFFFFFF05000100000002000000CC
:101B100001000000000000000A00FFFFFFFF0200BC
:101B20000000000016000000020000000400000099
:101B3000FF00FFFFFFFF060000000000170000008D
:101B40000200000004000000FF00FFFFFFFF07008D
:101B5000000000000C000000030000000400000072
:101B6000FF00FFFFFFFF0C00010000000A00000063
:101B70000300000004000000FF00FFFFFFFF0A0059
:101B8000010000000B000000030000000400000042
:101B9000FF00FFFFFFFF0B0001000000030000003B
:101BA0000B00000004000000FF00FFFFFFFFFF002C
:101BB000000000001B0000000B00000004000000FB
:101BC000FF00FFFFFFFFFF00000000001C000000FF
:101BD0000600000000000000FF00FFFFFFFFFF0005
:101BE00000000000180000000600000000000000D7
:101BF000FF00FFFFFFFFFF000000000019000000D2
:101C00000600000000000000FF00FFFFFFFFFF00D4
:101C100001000000160000000300000000000000AA
:101C2000FF00FFFFFFFFFF000100000017000000A2
:101C30000300000000000000FF00FFFFFFFFFF00A7
:101C4000000000001600000002000000000000007C
:101C5000FF00FFFFFFFFFF00000000001700000073
:101C60000200000000000000FF00FFFFFFFFFF0078
:101C7000000000001300000002000000000000004F
:101C8000FF00FFFFFFFFFF0000000000100000004A
:101C90000200000000000000FF00FFFFFFFFFF0048
:101CA0000000000012000000020000000000000020
:101CB000FF00FFFFFFFFFF00000000001100000019
:101CC0000200000000000000FF00FFFFFFFFFF0018
:101CD000000000000D000000040000000C000000E7
:101CE000FF000100FFFF0D000000000015000000D4
:101CF000050000000C000000FF000300FFFFFF00D4
:101D00000000000006000000040000000C000000BD
:101D1000FF000001FFFFFF000000000007000000BF
:101D2000040000000C000000FF000101FFFFFF00A5
:101D3000000000000300000001000000020000009D
:101D4000FF00FFFFFFFFFF00000000000200000097
:101D500001000000020000001400FFFFFFFF02006E
:101D6000000000001E00000004000000060000004B
:101D7000FF00FFFF00010A00000000001F0000003C
:101D80000400000006000000FF00FFFF01010B003F
:101D90000000000000000000FD120000CD13000054
:101DA000770F0000C30F0000710F000099130000AF
:101DB000870F0000610F0000311000009F0F00002E
:101DC0005B0F0000000000000000000000000000A9
:101DD0000000000000000000000000000000000003
:101DE00000000000000000000000000000000000F3
:101DF00000000000000000000000000000000000E3
:101E000000000000000000000000000000000000D2
:101E100000000000000000000000000000000000C2
:081E20000000000000000000BA
:101E28000000000040420F00FFFFFFFF10000020ED
:101E380000000000E41D0000041E0000C41D000096
:101E4800000000000000000000000000000000008A
:101E5800000000000000000000000000000000007A
:101E6800000000000000000000000000000000006A
:101E7800000000000000000000000000000000005A
:101E8800000000000000000000000000000000004A
:101E9800DD00000035050000B1050000B5000000B8
:040000030000065D96
:00000001FF
